S0130000727272635F73616D6435312E73726563EE
S113000030CD0020E10200007D0300007D030000EC
S11300107D0300007D0300007D030000000000005C
S11300200000000000000000000000007D0300004C
S11300307D030000000000007D0300007D0300003C
S11300407D0300007D0300007D0300007D030000AC
S11300507D0300007D0300007D0300007D0300009C
S11300607D0300007D0300007D0300007543000054
S11300707D0300007D0300007D0300007D0300007C
S11300807D0300007D0300007D0300007D0300006C
S11300907D0300007D030000E1370000F13700001C
S11300A001380000113800007D0300007D030000CA
S11300B07D0300007D0300007D0300004932000041
S11300C059320000693200007932000089320000A0
S11300D07D0300007D0300007D0300007D0300001C
S11300E07D0300007D03000000000000000000000C
S11300F000000000413E00009D540000B95400007F
S1130100D5540000F15400000D550000295500009D
S113011045550000615500007D55000099550000CB
S1130120B5550000D1550000ED55000009560000FA
S113013025560000415600007D0300007D030000A9
S11301407D0300007D0300007D0300007D030000AB
S11301507D0300007D0300005D5600007956000019
S113016095560000B15600007D0300007D03000099
S11301707D0300007D03000000000000000000007B
S11301807D8800008D8800009D880000AD880000F7
S113019000000000E95C00007D0300007D03000016
S11301A07D0300007D0300007D0300007D0300004B
S11301B0055D00007D0300007D0300007D03000059
S11301C07D0300007D0300007D0300007D0300002B
S11301D07D0300007D0300007D0300007D0300001B
S11301E07D0300007D0300007D030000AD66000078
S11301F0C9660000E5660000016700001D67000095
S1130200396700007D0300007D0300007D030000CA
S11302107D0300007D0300007D0300007D030000DA
S11302207D0300007D0300007D0300007D030000CA
S11302307D0300007D0300007D0300007D030000BA
S11302407D0300007D0300007D0300007D030000AA
S11302507D0300007D0300007D0300007D0300009A
S11302607D03000010B5054C237833B9044B13B15A
S11302700448AFF300800123237010BDB0010020B7
S1130280000000004C9100000C4B43B10C480D4998
S113029010B5AFF300800C48036823B910BD0A48B9
S11302A0036833B97047094B002BF7D0BDE8104001
S11302B01847064B002BF5D0184700BF000000007C
S11302C04C910000B40100204C910000000000009B
S11302D080B500AF014B984700BF80BDC514000036
S11302E080B582B000AF1C4B7B601C4B3B607A68CE
S11302F03B689A420CD007E03B681A1D3A607A6862
S1130300111D796012681A603B68154A9342F3D351
S1130310144B3B6004E03B681A1D3A6000221A60EB
S11303203B68114A9342F6D3104B7B60104A7B68BA
S113033023F07F0393600E4A0D4BD3F8883043F4C7
S11303407003C2F88830BFF34F8FBFF36F8F094B30
S11303509847094B9847FEE74C91000000000020A5
S1130360A8010020B0010020300D00200000000092
S113037000ED00E0558D0000398C000080B400AF22
S1130380FEE780B485B000AFF8600B467A60FB727C
S1130390FA7AFB682032796843F8221000BF1437D8
S11303A0BD465DF8047B704780B483B000AF7860CD
S11303B07B681B6943F480627B681A6100BF0C3759
S11303C0BD465DF8047B704780B483B000AF7860AD
S11303D07B685B6943F480727B685A6100BF0C37A9
S11303E0BD465DF8047B704780B483B000AF78608D
S11303F07B685B6943F400727B685A6100BF0C3709
S1130400BD465DF8047B704780B483B000AF78606C
S11304107B685B6943F480627B685A6100BF0C3778
S1130420BD465DF8047B704780B483B000AF78604C
S11304307B685B6943F480527B685A6100BF0C3768
S1130440BD465DF8047B704780B483B000AF78602C
S11304507B685B6943F400527B685A6100BF0C37C8
S1130460BD465DF8047B704780B483B000AF78600C
S11304707B685B6943F480427B685A6100BF0C3738
S1130480BD465DF8047B704780B483B000AF7860EC
S11304907B685B6943F400427B685A6100BF0C3798
S11304A0BD465DF8047B704780B483B000AF7860CC
S11304B07B689B6943F001027B689A6100BF0C373B
S11304C0BD465DF8047B704780B483B000AF7860AC
S11304D07B689B6943F400727B689A6100BF0C37A8
S11304E0BD465DF8047B704780B483B000AF78608C
S11304F07B689B6943F480627B689A6100BF0C3718
S1130500BD465DF8047B704780B483B000AF78606B
S11305107B689B6943F400627B689A6100BF0C3777
S1130520BD465DF8047B704780B483B000AF78604B
S11305307B689B6943F480527B689A6100BF0C37E7
S1130540BD465DF8047B704780B483B000AF78602B
S11305507B689B6943F400527B689A6100BF0C3747
S1130560BD465DF8047B704780B483B000AF78600B
S11305707B689B6943F480427B689A6100BF0C37B7
S1130580BD465DF8047B704780B483B000AF7860EB
S11305907B68DB6943F020027B68DA6100BF0C37BB
S11305A0BD465DF8047B704780B483B000AF7860CB
S11305B07B68DB6943F040027B68DA6100BF0C377B
S11305C0BD465DF8047B704780B483B000AF7860AB
S11305D07B681B6A43F004027B681A6200BF0C3715
S11305E0BD465DF8047B704780B483B000AF78608B
S11305F07B681B6A43F080027B681A6200BF0C3779
S1130600BD465DF8047B704780B483B000AF78606A
S11306107B681B6A43F480727B681A6200BF0C37E4
S1130620BD465DF8047B704780B485B000AFF860C8
S11306300B467A60FB72FB7AFA68DB0113440833D9
S11306407A681A6000BF1437BD465DF8047B7047B2
S113065080B485B000AFF8600B467A60FB72FB7A19
S1130660FA68DB01134404337A681A6000BF143754
S1130670BD465DF8047B704780B485B000AFF86078
S11306800B467A60FB72FB7AFA68DB011344183379
S11306907A681A6000BF1437BD465DF8047B704762
S11306A080B485B000AFF8600B467A60FB72FB7AC9
S11306B0FA68DB01134414337A681A6000BF1437F4
S11306C0BD465DF8047B704780B485B000AF7860A8
S11306D0084611461A460346FB700B46BB70134688
S11306E07B70FA78BB787968D2010A4413443033BA
S11306F01B78FB73FB7B23F00F03FB737B7803F006
S11307000F03DAB2FB7B1343FB73FA78BB78796887
S1130710D2010A4413443033FA7B1A7000BF1437F1
S1130720BD465DF8047B704780B485B000AF786047
S1130730084611461A460346FB700B46BB70134627
S11307407B70FA78BB787968D2010A441344303359
S11307501B78FB73FB7B03F00F03FB737B781B019C
S1130760DAB2FB7B1343FB73FA78BB787968D20166
S11307700A4413443033FA7B1A7000BF1437BD4661
S11307805DF8047B704780B485B000AF786008469C
S113079011461A460346FB700B46BB7013467B702A
S11307A0FA78BB787968D2010A44134440331B7841
S11307B0FB73FB7B23F00103FB737A78FB7B13430E
S11307C0FB73FA78BB787968D2010A441344403346
S11307D0FA7B1A7000BF1437BD465DF8047B70477E
S11307E090B482B000AF78600B46FB701346BB70C8
S11307F0FA78BB78F878B9787C68C0012044014461
S113080040310978C9B241F00401C8B27968D20113
S11308100A441344403302461A7000BF0837BD46E9
S113082090BC704790B482B000AF78600B46FB7008
S11308301346BB70FA78BB78F878B9787C68C00145
S11308402044014440310978C9B221F00401C8B2FE
S11308507968D2010A441344403302461A7000BF37
S11308600837BD4690BC704780B485B000AFF860CF
S11308700B467A60FB72FB7AFA68DB011344283377
S11308807A681A6000BF1437BD465DF8047B704770
S113089080B582B000AF03463960FB711346BB716B
S11308A0BB79012B1CD0022B37D0002B4ED1FB7906
S11308B03A6819462A482B4B98473B689BB243F049
S11308C08042FB7919462648274B98473B681B0C06
S11308D043F04042FB7919462148234B98473AE0BC
S11308E0FB793A6819461E481E4B98473B689BB2F1
S11308F043F0804343F40033F9791A4618481A4BFD
S113090098473B681B0C43F0404343F40033F979A8
S11309101A461348144B98471DE0FB793A68194668
S11309200F48124B98473B689BB243F08042FB79D7
S113093019460B480C4B98473B681B0C43F040424C
S1130940FB7919460648084B984704E046220849B3
S11309500020084B984700BF0837BD4680BD00BF44
S113096000800041510600006908000029060000CB
S1130970C48D00004922000080B582B000AF034658
S11309803960FB711346BB71BB79002B06D0FB7930
S11309903A6819460648074B984705E0FB793A68D8
S11309A019460348044B984700BF0837BD4680BD2D
S11309B00080004179060000A106000080B582B0E5
S11309C000AF0346FB710B46BB7113467B717B7909
S11309D0012B0AD0022B1FD0002B34D1BA79FB791A
S11309E019461E481E4B984733E0BB7901229A40B2
S11309F0FB79194619481B4B9847BA79FB79194674
S1130A001648194B9847BB7901229A40FB7919463D
S1130A101248164B98471CE0BB7901229A40FB7997
S1130A2019460E480F4B9847BA79FB7919460B487B
S1130A300D4B9847BB7901229A40FB791946074828
S1130A400B4B984705E089220A4900200A4B984736
S1130A5000BF00BF0837BD4680BD00BF0080004115
S1130A602508000051060000E10700007906000097
S1130A70A1060000C48D00004922000090B585B095
S1130A8000AF786039607B685B09FB737B68DBB21D
S1130A9003F01F03BB733B68B3F1FF3F06D1BA7B7E
S1130AA0F97B00231248134CA0471DE0BA7BF97B65
S1130AB001230F480F4CA047BB7B03F00103002B1D
S1130AC009D0BB7B5B08DAB23B68DBB2F97B084830
S1130AD0094CA04708E0BB7B5B08DAB23B68DBB299
S1130AE0F97B0348054CA04700BF1437BD4690BDB1
S1130AF0008000418707000029070000C9060000A4
S1130B0080B582B000AF03460A46FB711346BB7141
S1130B10FB795B09D8B2FB7903F01F03DBB2BA7926
S1130B201946034B984700BF0837BD4680BD00BF38
S1130B30BD09000080B582B000AF786039603968C3
S1130B407868034B984700BF0837BD4680BD00BF97
S1130B507D0A000080B582B000AF03460A46FB71EF
S1130B601346BB71FB795B09D8B2FB7903F01F0311
S1130B70012202FA03F3BA791946034B984700BFDE
S1130B800837BD4680BD00BF9108000080B582B023
S1130B9000AF03460A46FB711346BB71FB795B0940
S1130BA0D8B2FB7903F01F03012202FA03F3BA79E6
S1130BB01946034B984700BF0837BD4680BD00BFA8
S1130BC07909000080B500AF014B984700BF80BD94
S1130BD0452C000080B582B000AF786039607B6836
S1130BE0002B04D03B68002B01D0012300E000233C
S1130BF003F00103DBB2482207491846074B984724
S1130C007B683A681A607B681846054B9847034628
S1130C1018460837BD4680BDE08D0000492200001B
S1130C20B989000080B500AF002102200F4B98471E
S1130C300F4902200F4B9847002103200B4B984784
S1130C400D4903200B4B984700212020074B984760
S1130C500A492020074B984700212120034B98473D
S1130C6007492120034B984700BF80BD550B000066
S1130C7001000200350B0000010003000100200008
S1130C800100210080B500AF0448054B984741227C
S1130C9028210448044B984700BF80BD0008004049
S1130CA0E9050000001C00408303000080B500AF8C
S1130CB0054B9847054B9847002205490548064BC4
S1130CC0984700BF80BD00BF850C0000250C0000C4
S1130CD0001C0043EC0600207515000080B500AF31
S1130CE0002142200B4B98470B4942200B4B98475D
S1130CF000214020074B984709494020074B98475B
S1130D0000214120034B984706494120034B984753
S1130D1000BF80BD550B000001004200350B0000F0
S1130D20010040000100410080B500AF0448054BBC
S1130D309847412229210448044B984700BF80BDAD
S1130D400008004009060000001C00408303000066
S1130D5080B500AF054B9847054B984700220549DD
S1130D600548064B984700BF80BD00BF290D000011
S1130D70DD0C00000020004354080020751500001D
S1130D8080B500AF412204211E481F4B98471F48DD
S1130D901F4B984701212A201E4B984700212A20E7
S1130DA01D4B98474FF428112A201C4B98470121CA
S1130DB02B20184B984700212B20174B98474FF4B2
S1130DC02C112B20154B984701212C20114B9847AF
S1130DD000212C20104B98474FF430112C200F4B3E
S1130DE0984701212D200B4B984700212D200A4BB9
S1130DF098474FF434112D20084B9847084B9847D7
S1130E0000BF80BD001C00408303000000080040B8
S1130E1009040000550B0000010B0000350B000015
S1130E204D16000080B500AF0648074B9847074BA6
S1130E30984703461A4606490648074B984700BF99
S1130E4080BD00BF00080040E903000061430000CA
S1130E5000240040C0080020151C000080B500AF2D
S1130E6000210820074B984707490820074B98475B
S1130E7000210920034B984705490920034B984753
S1130E8000BF80BD010B000002000800350B00000C
S1130E900200090080B500AF412207210648074B34
S1130EA09847422203210448044B98470448054BC1
S1130EB0984700BF80BD00BF001C004083030000B2
S1130EC0000800402904000080B500AF044B984797
S1130ED004490548054B9847054B984700BF80BD1A
S1130EE0950E000000300040E00800205918000072
S1130EF05D0E000080B500AF00211020074B98471D
S1130F0007491020074B984700211120034B9847AD
S1130F1005491120034B984700BF80BD010B000019
S1130F2002001000350B00000200110080B500AF74
S1130F30412208210648074B9847422203210448CE
S1130F40044B98470448054B984700BF80BD00BF39
S1130F50001C004083030000000800404904000016
S1130F6080B500AF044B984704490548054B9847A2
S1130F70054B984700BF80BD2D0F00000034004092
S1130F80AC06002059180000F50E000080B500AF33
S1130F9000210C20074B984707490C20074B984722
S1130FA000210D20034B984705490D20034B98471A
S1130FB000BF80BD010B000002000C00350B0000D7
S1130FC002000D0080B500AF412217210648074BEF
S1130FD09847422203210448044B98470448054B90
S1130FE0984700BF80BD00BF001C00408303000081
S1130FF000080040C904000098B500AF054B9847AD
S11310008023054A05490648064CA047064B9847E5
S113101000BF98BDC50F00007407002000200141E7
S113102078080020ED1800008D0F000080B500AF97
S113103000211620074B984707491620074B98476D
S113104000211720034B984705491720034B984765
S113105000BF80BD010B000002001600350B00002C
S11310600200170080B500AF412218210648074B43
S11310709847422203210448044B98470448054BEF
S1131080984700BF80BD00BF001C004083030000E0
S113109000080040E904000080B500AF044B984705
S11310A004490548054B9847054B984700BF80BD48
S11310B06510000000400141140800205918000088
S11310C02D10000080B500AF00216920074B984720
S11310D007496920074B984700216820034B98472C
S11310E005496820034B984700BF80BD010B0000F1
S11310F003006900350B00000300680080B500AFF1
S1131100412224210648074B9847422203210448E0
S1131110044B98470448054B984700BF80BD00BF67
S1131120001C00408303000000080040C9050000C3
S113113080B500AF044B984704490548054B9847D0
S1131140054B984700BF80BDFD1000000008004318
S11311502C06002059180000C510000080B500AF0F
S11311600248034B984700BF80BD00BF10E000E079
S11311702516000080B500AF0848094B9847412266
S113118009210848084B9847084B984703461A46D4
S113119007490848084B984700BF80BD0008004035
S11311A069040000001C0040830300000166000085
S11311B00038004034070020151C000080B500AF43
S11311C00848094B9847412209210848084B984789
S11311D0084B984703461A4607490848084B98475E
S11311E000BF80BD0008004089040000001C0040CE
S11311F08303000001660000003C00406C060020F0
S1131200151C000080B500AF0848094B98474122DF
S11312101A210848084B9847084B984703461A4632
S113122007490848084B984700BF80BD00080040A4
S113123049050000001C0040830300000166000013
S113124000A0014158080020151C000080B500AF23
S11312500848094B984741221A210848084B9847E7
S1131260084B984703461A4607490848084B9847CD
S113127000BF80BD0008004069050000001C00405C
S1131280830300000166000000C00141F006002055
S1131290151C000080B500AF0848094B984741224F
S11312A01E210848084B9847084B984703461A469E
S11312B007490848084B984700BF80BD0008004014
S11312C089050000001C0040830300000166000043
S11312D00014004254070020151C000080B500AF24
S11312E00848094B984741221E210848084B984753
S11312F0084B984703461A4607490848084B98473D
S113130000BF80BD00080040A9050000001C00408B
S1131310830300000166000000180042F407002067
S1131320151C000080B500AF0448054B98474122C6
S113133019210448044B984700BF80BD00080040B1
S113134009050000001C00408303000080B500AFC5
S1131350054B9847054B984703461A4604490548E8
S1131360054B984700BF80BD25130000615C000059
S1131370006001418C060020151C000080B500AF00
S11313800448054B9847412219210448044B9847C7
S113139000BF80BD0008004029050000001C00407B
S11313A08303000080B500AF054B9847054B984771
S11313B003461A4604490548054B984700BF80BDBB
S11313C07D130000615C00000080014114070020CF
S11313D0151C000080B500AF022118200F4B984760
S11313E0002118200E4B9847002118200D4B9847D8
S11313F00D4918200D4B984702211920074B984797
S113140000211920064B984700211920054B9847C5
S113141007491920054B984700BF80BD550B0000B4
S11314208D0B0000010B000007001800350B0000B5
S11314300700190080B500AF43220A210548064B76
S113144098470648064B98470448064B984700BF00
S113145080BD00BF001C0040830300000008004062
S1131460A9030000A904000080B500AF034B98470E
S1131470034B9847034B984700BF80BD35140000C9
S11314809D210000D513000080B500AF0248034B36
S1131490984700BF80BD00BF00080040C90300009A
S11314A080B500AF034B984703490448044B984761
S11314B000BF80BD891400000020004010070020F8
S11314C0D50B000080B500AF154B9847154B9847D6
S11314D0154B9847154B9847154B9847154B98470C
S11314E0154B9847154B9847154B9847154B9847FC
S11314F0154B9847154B9847154B9847154B9847EC
S1131500154B9847154B9847154B9847154B9847DB
S1131510154B9847154B9847154B984700BF80BD0E
S1131520C50B0000AD0C0000510D0000810D000042
S1131530250E0000C90E0000610F0000F90F000025
S113154099100000311100005D11000075110000B8
S1131550BD110000051200004D120000951200009C
S1131560DD1200004D130000A513000069140000F3
S1131570A114000080B584B000AFF860B9607A604F
S1131580FB68002B04D0BB68002B01D0012300E0D2
S1131590002303F00103DBB2392207491846074B45
S11315A09847FB68B9681846054B984703461846A0
S11315B01037BD4680BD00BFFC8D000049220000ED
S11315C0A129000080B485B000AF7860EFF31083E8
S11315D0FB60FA687B681A6072B6BFF35F8F00BF66
S11315E01437BD465DF8047B704780B485B000AF06
S11315F07860BFF35F8F7B681B68FB60FB6883F3D5
S1131600108800BF1437BD465DF8047B70470000A6
S113161080B500AF024B98470346184680BD00BF13
S11316202D2B000080B582B000AF7860054A7B683E
S11316301360044B1B681846034B984700BF0837D8
S1131640BD4680BDCC010020F556000080B582B0B7
S113165000AF0023FB800EE0FB880C4ADB00134440
S11316604FF0FF325A60FB88084A002142F83310D9
S1131670FB880133FB80FB88032BEDD90448054B21
S11316809847034618460837BD4680BDD001002060
S1131690991600008135000080B584B000AF7860F1
S11316A00023FB730423BB732AE0BA7BFB7B134444
S11316B05B107B737B7B032B27D87B7B164ADB0079
S11316C013445A687B689A420BD17B7B124A52F8C6
S11316D03330002B1BD07B7B0F4A52F833309847B2
S11316E015E07B7B0C4ADB0013445A687B689A4202
S11316F003D27B7B0133FB7302E07B7B013BBB7337
S1131700BA7BFB7B9A42D0D202E000BF00E000BF6C
S11317101037BD4680BD00BFD001002080B584B025
S113172000AF78607B68FB607B685B889BB203F4E6
S11317308073002B07D1FB685B6B002B03D0FB6825
S11317405B6BF868984700BF1037BD4680BD80B515
S113175084B000AF78607B68FB607B685B889BB279
S113176003F48073002B07D1FB689B6B002B03D021
S1131770FB689B6BF868984700BF1037BD4680BD77
S113178080B584B000AF786039607B68FB607B68AB
S11317905B889BB203F48073002B08D1FB681B6B3E
S11317A0002B04D0FB681B6B3968F868984700BFAE
S11317B01037BD4680BD000080B58AB000AFF86028
S11317C0B9601346FB80FB68283B7B627B6A9B8F76
S11317D0BB82FB88BB6148F20103FB82BB68FB61EF
S11317E07B6A07F1140211461846064B9847386283
S11317F03B6A002B01D03B6A00E0FB88184628377F
S1131800BD4680BD514F000080B58AB000AFF8607E
S1131810B9601346FB80FB68283B7B627B6A9B8F25
S1131820BB82FB88BB614FF40043FB82BB68FB6156
S11318307B6A07F1140211461846064B9847386232
S11318403B6A002B01D03B6A00E0FB88184628372E
S1131850BD4680BD514F000080B584B000AF7860B4
S113186039607B68002B14BF01230023DBB289227B
S113187015491846154B98477B6839681846144B28
S11318809847F860FB68002B01D0FB6818E07B6880
S1131890104ADA627B68104A9A627B680F4A012117
S11318A018460F4B98477B680E4A022118460C4B8A
S11318B098477B680C4A00211846094B9847002337
S11318C018461037BD4680BD188E0000492200001E
S11318D0A14D0000B9170000091800001D170000F1
S11318E0255000004F1700008117000080B586B016
S11318F000AFF860B9607A607B80FB68002B0AD087
S1131900BB68002B07D07B68002B04D07B88002B9E
S113191001D0012300E0002303F00103DBB23A22EB
S11319201B4918461B4B9847FB6830337A88796803
S11319301846194B98470346002B02D06FF00C034E
S113194022E0FB68B9681846144B984778617B69B4
S1131950002B01D07B6917E0FB68114ADA61FB6850
S1131960104A9A61FB68104A5A60FB680F4A9A60F1
S1131970FB680F4ADA60FB680022A3F84620FB6884
S11319800022A3F84420002318461837BD4680BD22
S1131990388E00004922000059230000A95100009C
S11319A0A11A0000511B00007D1A0000B5190000A7
S11319B0411A000080B584B000AF78607B68FB609A
S11319C0FB68B3F84430002B08D1FB685B6A002B3A
S11319D030D0FB685B6AF86898472BE0FB68B3F883
S11319E0463001339AB2FB68A3F84620FB68B3F88B
S11319F04620FB68B3F844309A420BD0F868FB6881
S1131A001B6CFA68B2F8462013441B7819460B4B3A
S1131A1098470FE0FB680022A3F84620FB680022E9
S1131A20A3F84420FB689B6A002B03D0FB689B6AE5
S1131A30F868984700BF1037BD4680BD5552000076
S1131A4080B584B000AF78600B46FB707B68FB60A8
S1131A50FB683033FA7811461846074B9847FB6801
S1131A60DB6A002B03D0FB68DB6AF868984700BF89
S1131A701037BD4680BD00BF3D24000080B584B052
S1131A8000AF78607B68FB60FB681B6A002B03D0A7
S1131A90FB681B6AF868984700BF1037BD4680BDD5
S1131AA080B588B000AFF860B9601346FB800023AE
S1131AB0FB83FB68183BBB61FB68002B07D0BB684A
S1131AC0002B04D0FB88002B01D0012300E000236D
S1131AD003F00103DBB24FF49B7217491846174B0E
S1131AE0984707F110031846154B9847BB693033E4
S1131AF01846144B9847786107F110031846124BA7
S1131B0098470CE0BB6903F13002FB8B591CF98345
S1131B101946BB680B44194610460C4B9847FA8B80
S1131B207B699A4203D2FA8BFB889A42EAD3FB8BF5
S1131B3018462037BD4680BD388E0000492200007B
S1131B40C5150000B1240000EB150000CD230000F2
S1131B5080B586B000AFF860B9601346FB80FB68BF
S1131B60183B7B61FB68002B07D0BB68002B04D0BB
S1131B70FB88002B01D0012300E0002303F00103C4
S1131B80DBB240F2511211491846114B98477B6958
S1131B90B3F846207B69B3F844309A4202D06FF020
S1131BA003030FE07B69BA681A647B69FA88A3F8B7
S1131BB044207A697B691B6C1B7819461046054BD7
S1131BC09847FB8818461837BD4680BD388E0000FC
S1131BD0492200005552000080B483B000AF786001
S1131BE07B681B6818460C37BD465DF8047B70475C
S1131BF080B483B000AF78607B68002B02D07B6830
S1131C001B6800E0002318460C37BD465DF8047BD2
S1131C107047000080B584B000AFF860B9607A60A6
S1131C20FB68002B07D0BB68002B04D07B68002B1B
S1131C3001D0012300E0002303F00103DBB23B22C7
S1131C400C4918460C4B9847FB687A681A60FB6885
S1131C501B681B68FA680432B96810469847FB6829
S1131C6000225A61FB68054A5A600023184610375F
S1131C70BD4680BD588E000049220000311D000081
S1131C8080B588B000AFF860B9607A600023BB61AA
S1131C90F868234B984738613B69002B04D1B96835
S1131CA0F868204B984737E03B69FB6122E0FB6909
S1131CB05A687B689A4208D8FB699A68FB69596834
S1131CC07B68CB1A13447B6109E0FB699A68FB6962
S1131CD05B681A447B685B42134401337B61BB68D5
S1131CE09A687B699A4209D9FB69BB61F8690E4B12
S1131CF09847F861FB69002BD9D100E000BFFA696D
S1131D003B699A4204D1B968F868064B984703E0E6
S1131D10B968B869054B98472037BD4680BD00BFF8
S1131D20D91B0000A9220000F11B000001230000C0
S1131D3080B586B000AF78607B68043B3B613B694B
S1131D4018331846274B984778613B695B695A1CDE
S1131D503B695A613B695B69FB603B691B7FDBB292
S1131D6003F00103002B06D13B691B7FDBB203F0B8
S1131D700203002B27D03B691B7FDBB243F0020335
S1131D80DAB23B691A7729E07B69BB603B69183397
S1131D901846154B9847BB681B7C012B09D1BB68BF
S1131DA0FA685A603B691833FA68B96818460F4BE9
S1131DB098473B69183318460A4B98477861BB68C3
S1131DC0DB68B86898477B69002B07D07B695B6840
S1131DD0FA68D21A7B699B689A42D5D21837BD46F5
S1131DE080BD00BFD91B000025230000811C00001A
S1131DF080B485B000AF0346FB710023FB7329E078
S1131E0097F90F30194A5B01134401331B78FA79AF
S1131E109A4202D197F90F3022E097F90F30134A12
S1131E205B0113441B78002B0ED1FB7903F00F03E5
S1131E3097F90F200D4952010A4401321278934256
S1131E4002D197F90F300BE097F90F30DBB2013371
S1131E50DBB2FB7397F90F30032BD1DD4FF0FF3367
S1131E6018461437BD465DF8047B7047F001002026
S1131E7080B588B000AFBA607B600346FB730B4645
S1131E80BB73BB687B617B68BB61BB7B002B04D0ED
S1131E90FB7B63F07F03DBB203E0FB7B03F00F0308
S1131EA0DBB23B7797F828307B7707F114031846A9
S1131EB0034B9847034618462037BD4680BD00BFF4
S1131EC06186000080B485B000AFF860B9607A60C4
S1131ED0002318461437BD465DF8047B70470000A4
S1131EE080B586B000AF0346FB71FB7918462A4BD8
S1131EF098470346FB7597F917305B01274A13444B
S1131F003B613B690C33FB60FB79F9681846244B51
S1131F1098470346FB72FB7A082B0DD0FB7901210D
S1131F201846204B9847FB7963F07F03DBB201210D
S1131F3018461C4B98472BE0FB7900211846194B97
S1131F409847FB7963F07F03DBB200211846154BF9
S1131F5098473B6901229A703B695B69FA79F96891
S1131F6010469847034683F00103DBB2002B0FD0E1
S1131F703B6905229A70FB7901211846094B984761
S1131F80FB7963F07F03DBB201211846054B9847C8
S1131F901837BD4680BD00BFF11D0000F0010020D0
S1131FA0B98500003184000080B584B000AF0346D9
S1131FB03960FB71FB7918460D4B98470346FB7358
S1131FC097F90F305B010B4A1344BB60BB689B78E5
S1131FD0032B07D1BB689B69FA7939681046984787
S1131FE0034600E0002318461037BD4680BD00BFFD
S1131FF0F11D0000F001002090B587B002AF7860B9
S11320007B689B78FB737B681B7B03F08003002B4E
S113201014BF01230023BB73FB7B032B3AD17B68E2
S1132020DB697A6850787A680C3201219847034654
S11320307B737B7B002B15D07B6805229A707B68B1
S11320400222DA70BB7B002B02D07B685B7804E051
S11320507B685B7863F07F03DBB201211846154B84
S1132060984722E07B6804229A707B685878BB7B8F
S1132070002B14BF01230023DBB283F00103DBB286
S113208003F00103D9B201230093002300220A4C78
S1132090A0470AE07B68DB697A6850787A680C327A
S11320A0002198477B6802229A7000BF1437BD460E
S11320B090BD00BF31840000711E000080B586B061
S11320C000AF0346B9607A60FB73FB7B18462F4B65
S11320D098470346FB7597F917305B012C4A134464
S11320E03B61BB68002B0ED13B690022DA703B696F
S11320F01B78002B03D13869264B984743E03B6992
S113210001229A7038E0BB68012B13D13B6902228B
S1132110DA703B691B78002B08D13B6902229A7064
S1132120FB7B002118461C4B984725E03B690522A0
S11321309A7021E0BB68022B0ED13B690422DA704D
S11321403B691B78002B03D13B6902229A701AE089
S11321503B6901229A700FE0BB68032B06D13B69EF
S113216000229A703B690522DA7005E03B69062279
S11321709A703B690622DA703B69DB693A69D17867
S11321807A68F87B98471837BD4680BDF11D00007A
S1132190F0010020F91F00003184000080B582B0F6
S11321A000AF214B984738603B68002B01DA3B684D
S11321B036E0802200211D481D4B98470023FB7107
S11321C01EE0FB79194A5B0113440133FF221A70A4
S11321D0FB79164A5B0113441433164A1A60FB79DF
S11321E0124A5B0113441833124A1A60FB790F4AEE
S11321F05B0113441C330F4A1A60FB790133FB71F2
S1132200FB79032BDDD90C4900200C4B98470C4972
S113221001200A4B98470B490220084B984700239A
S113222018460837BD4680BDE5810000F001002056
S1132230B38D0000C51E0000E11E000025880000CB
S1132240A91F0000BD20000080B485B000AF034684
S1132250B9607A60FB73FB7B83F00103DBB2002B74
S113226000D000BE00BF1437BD465DF8047B704744
S113227080B485B000AF786039607B681B68FB6010
S113228008E0FA683B689A4201D1012306E0FB6842
S11322901B68FB60FB68002BF3D10023184614373E
S11322A0BD465DF8047B704780B582B000AF7860AE
S11322B03960396878680F4B98470346002B14BF80
S11322C001230023DBB283F00103DBB203F001033B
S11322D0DBB2392208491846084B98477B681A68CC
S11322E03B681A607B683A681A6000BF0837BD46CD
S11322F080BD00BF71220000708E000049220000E2
S113230080B483B000AF786039607B681A683B683A
S11323101A607B683A681A6000BF0C37BD465DF8E6
S1132320047B704780B485B000AF78607B681B681D
S1132330002B09D07B681B68FB607B681B681A68EC
S11323407B681A60FB6800E0002318461437BD461A
S11323505DF8047B7047000080B584B000AFF8607E
S1132360B9607A60FB68002B07D0BB68002B04D0EF
S11323707B68002B01D0012300E0002303F001035C
S1132380DBB228220F4918460F4B98477B685A1E28
S11323907B681340002B02D06FF00C030EE07B68C7
S11323A05A1EFB685A60FB6800229A60FB689A68B0
S11323B0FB68DA60FB68BA681A60002318461037B5
S11323C0BD4680BD908E00004922000080B582B0D9
S11323D000AF786039607B68002B04D03B68002B29
S11323E001D0012300E0002303F00103DBB240220B
S11323F010491846104B98477B68DA687B689B68DD
S11324009A4211D07B681A687B6899687B685B681C
S11324100B4013441A783B681A707B689B685A1CFB
S11324207B689A60002301E06FF0090318460837BF
S1132430BD4680BD908E00004922000080B582B068
S113244000AF78600B46FB707B68002B14BF012340
S11324500023DBB2512214491846144B98477B6879
S11324601A687B68D9687B685B680B401344FA7808
S11324701A707B68DA687B689B68D21A7B685B6831
S11324809A4206D97B68DA687B685B68D21A7B68F3
S11324909A607B68DB685A1C7B68DA600023184604
S11324A00837BD4680BD00BF908E00004922000061
S11324B080B582B000AF78607B68002B14BF012325
S11324C00023DBB2672206491846064B98477B680F
S11324D0DA687B689B68D31A18460837BD4680BD06
S11324E0908E00004922000080B483B000AF786071
S11324F0396000BF7B681A6B3B681340002BF9D12D
S113250000BF0C37BD465DF8047B704780B483B0D0
S113251000AF786039607B681A6B3B681340002B0E
S113252014BF01230023DBB218460C37BD465DF807
S1132530047B704780B582B000AF78607B681B88ED
S11325409BB223F002039AB27B681A800321786855
S1132550024B984700BF0837BD4680BDE924000000
S113256080B584B000AF78600B467B800321786827
S1132570064B98477B681B88FB81FA897B8813404C
S1132580FB81FB8918461037BD4680BDE924000055
S113259080B582B000AF78600B467B807B687A8818
S11325A01A8003217868034B984700BF0837BD465B
S11325B080BD00BFE924000080B483B000AF786020
S11325C00B46FB707B68FA789A7000BF0C37BD46E7
S11325D05DF8047B704780B483B000AF78600B462D
S11325E0FB707B68FA78DA7000BF0C37BD465DF883
S11325F0047B704780B582B000AF78600B467B8067
S11326007B687A889A8040F6FF717868024B984715
S113261000BF0837BD4680BDE924000080B582B004
S113262000AF78600B467B807B687A88DA8040F65E
S1132630FF717868024B984700BF0837BD4680BDDC
S1132640E924000080B582B000AF78600B46FB70CF
S11326507B68FA781A7240F6FF717868024B9847E3
S113266000BF0837BD4680BDE924000080B582B0B4
S113267000AF78600B46FB707B68FA789A7240F67C
S1132680FF717868024B984700BF0837BD4680BD8C
S1132690E924000080B582B000AF78600B46FB707F
S11326A07B68FA78DA7240F6FF717868024B9847D3
S11326B000BF0837BD4680BDE924000080B582B064
S11326C000AF78600B467B807B687A889A81802192
S11326D07868034B984700BF0837BD4680BD00BFEC
S11326E0E924000080B582B000AF78600B467B809F
S11326F07B687A88DA814FF480717868024B984756
S113270000BF0837BD4680BDE924000080B582B013
S113271000AF78600B467B807B687A881A824FF41E
S113272000717868024B984700BF0837BD4680BDEA
S1132730E924000080B582B000AF78600B467B804E
S11327407B687A885A824FF480617868024B984794
S113275000BF0837BD4680BDE924000080B483B0C3
S113276000AF78607B6803F13D43A3F5E0539B0A17
S1132770DBB218460C37BD465DF8047B7047000099
S113278080B584B000AF78607B681846114B9847D9
S11327900346BB730023FB730EE0FB7B0E4A16213A
S11327A001FB03F313441B78BA7B9A4201D1FB7BF0
S11327B00BE0FB7B0133FB73FB7B012BEDD9882200
S11327C006490020064B9847002318461037BD469B
S11327D080BD00BF5D270000B48E0000E08E0000C5
S11327E04922000080B582B000AF78600B46FB70D0
S11327F001217868594B9847034683F00103DBB203
S1132800002B11D002217868554B98470346002BC2
S113281006D07868534B984702217868524B984702
S113282001217868514B9847012178684E4B9847AD
S1132830FB784F4A162101FB03F3134404331B882E
S1132840194678684B4B9847FB78494A162101FB97
S113285003F3134406331B7819467868464B9847AC
S1132860FB78434A162101FB03F3134407331B7817
S113287019467868414B9847FB783D4A162101FB7D
S113288003F3134408331B88194678683C4B984774
S1132890FB78374A162101FB03F313440A331B78F0
S11328A019467868374B9847FB78314A162101FB63
S11328B003F313440B331B7819467868324B98475B
S11328C0FB782B4A162101FB03F313440C331B88BA
S11328D0194678682D4B9847FB78254A162101FB49
S11328E003F313440E331B8819467868284B984722
S11328F0FB781F4A162101FB03F3134410331B8892
S113290019467868234B9847FB78194A162101FB2E
S113291003F3134412331B88194678681E4B9847F7
S1132920FB78134A162101FB03F3134414331B7879
S113293019467868194B9847FB780D4A162101FB14
S113294003F3134402331B8819467868074B9847EE
S1132950002318460837BD4680BD00BF0D25000082
S11329606125000035250000E924000091250000C0
S1132970B48E00001D26000045260000B925000085
S1132980F52500006D26000095260000BD260000F8
S1132990E52600000D27000035270000D72500009C
S11329A080B582B000AF786039607B68002B14BFBB
S11329B001230023DBB2CE220A4918460A4B98476A
S11329C07B683A681A603B681846084B9847034688
S11329D019463868064B9847034618460837BD46DB
S11329E080BD00BFE08E0000492200008127000066
S11329F0E527000080B483B000AF78607B68DB68B3
S1132A0003F00103002B14BF01230023DBB218469B
S1132A100C37BD465DF8047B704780B483B000AFCB
S1132A20786039607B683A685A6000BF0C37BD46ED
S1132A305DF8047B704780B483B000AF7860396080
S1132A407B683A689A6000BF0C37BD465DF8047B2A
S1132A507047000080B582B000AF78607868034B9F
S1132A609847034618460837BD4680BDF52900003F
S1132A7080B582B000AF78607868094B9847034608
S1132A80002B14BF01230023DBB283F00103DBB26C
S1132A9003F00103DBB218460837BD4680BD00BF12
S1132AA0F529000080B584B000AF786078680E4BDB
S1132AB098470346002B0FD0012178680B4B9847A9
S1132AC078680B4B98470346002B01D0002301E0A4
S1132AD06FF01D03FB6002E06FF00103FB60FB6815
S1132AE018461037BD4680BD712A0000372A000001
S1132AF0552A000080B582B000AF78600021786864
S1132B00084B984700BF7868074B9847034683F003
S1132B100103DBB2002BF6D1002318460837BD466B
S1132B2080BD00BF372A0000712A000080B582B042
S1132B3000AF1248124B98471048124B984703466F
S1132B40002B12D024210D480F4B98470B480F4BF4
S1132B5098470A480E4B98470346002B01D00023A0
S1132B6001E06FF01D037B6002E06FF013037B60F4
S1132B707B6818460837BD4680BD00BF0060004131
S1132B80F52A0000712A00001B2A0000A52A000073
S1132B90552A000080B483B000AF0346FB80B7F928
S1132BA00630002B0CDB0949B7F906305B09FA88BB
S1132BB002F01F02012000FA02F2403341F8232000
S1132BC000BF0C37BD465DF8047B704700E100E0B0
S1132BD080B582B000AF0346FB71FB791BB2184687
S1132BE0024B984700BF0837BD4680BD952B0000B7
S1132BF080B483B000AF78607B681B6943F40072D3
S1132C007B681A6100BF0C37BD465DF8047B7047D2
S1132C1080B483B000AF78600B467B807B681B88F0
S1132C209AB27B881B029BB203F470639BB213437A
S1132C309AB27B681A8000BF0C37BD465DF8047BEE
S1132C407047000080B500AF00210D480D4B984738
S1132C500D4B98470D4B98470D4B984704200D4B4F
S1132C6098470D4B984740F6FB700A4B98470B4822
S1132C700B4B98470B4B98470B4B984700BF80BDB5
S1132C8000400041112C00008D390000893C0000F7
S1132C900939000075380000A53C00000008004018
S1132CA0F12B0000593000001116000080B483B0ED
S1132CB000AF0346FB80B7F90630002B0BDB094954
S1132CC0B7F906305B09FA8802F01F02012000FA06
S1132CD002F241F8232000BF0C37BD465DF8047BA7
S1132CE0704700BF00E100E080B483B000AF03464A
S1132CF0FB80B7F90630002B10DB0B49B7F906301F
S1132D005B09FA8802F01F02012000FA02F2203364
S1132D1041F82320BFF34F8FBFF36F8F00BF0C37F1
S1132D20BD465DF8047B704700E100E080B483B0E9
S1132D3000AF0346FB80B7F90630002B0CDB0949D2
S1132D40B7F906305B09FA8802F01F02012000FA85
S1132D5002F2603341F8232000BF0C37BD465DF812
S1132D60047B704700E100E080B483B000AF78607A
S1132D707B681B889BB243F001039AB27B681A807C
S1132D8000BF0C37BD465DF8047B704780B485B046
S1132D9000AF78607B681B88FB81FB8903F001032B
S1132DA0FB81FB89002B14BF01230023DBB21846EF
S1132DB01437BD465DF8047B704780B483B000AF20
S1132DC078607B681B889BB243F002039AB27B68ED
S1132DD01A8000BF0C37BD465DF8047B704780B491
S1132DE083B000AF78607B681B889BB223F002033A
S1132DF09AB27B681A8000BF0C37BD465DF8047B2D
S1132E00704780B483B000AF78600B467B807B68EA
S1132E107A881A8000BF0C37BD465DF8047B704782
S1132E2080B483B000AF78600B467B807B685B889E
S1132E309BB21AB2B7F90230DB431BB213401BB288
S1132E409AB27B685A8000BF0C37BD465DF8047B9C
S1132E50704780B485B000AF78600B46FB707B6828
S1132E605B7BFB73FB7B23F00103FB73FA78FB7B37
S1132E701343FB737B68FA7B5A7300BF1437BD4658
S1132E805DF8047B704780B483B000AF786039602C
S1132E907B683A685A6100BF0C37BD465DF8047B15
S1132EA0704780B485B000AF78600B467B807B6848
S1132EB01B8CFB81FA897B881340FB81FB891846B4
S1132EC01437BD465DF8047B704780B483B000AF0F
S1132ED0786039607B683A685A6300BF0C37BD4636
S1132EE05DF8047B704780B483B000AF78603960CC
S1132EF07B683A689A6300BF0C37BD465DF8047B73
S1132F00704780B483B000AF78600B467B807B68E9
S1132F107A881A8000BF0C37BD465DF8047B704781
S1132F2080B483B000AF78600B46FB70FB787A689E
S1132F301B0113444E331B78DBB203F00103002B57
S1132F4014BF01230023DBB218460C37BD465DF8DD
S1132F50047B704780B483B000AF78600B46FB708D
S1132F60FB787A681B0113444E3301221A7000BFA8
S1132F700C37BD465DF8047B704780B483B000AF66
S1132F8078600B46FB70FB787A681B0113444E3360
S1132F901B78DBB25B0803F00103002B14BF012391
S1132FA00023DBB218460C37BD465DF8047B70473E
S1132FB080B483B000AF78600B46FB70FB787A680E
S1132FC01B0113444E3302221A7000BF0C37BD4656
S1132FD05DF8047B704780B485B000AFF8600B46A1
S1132FE07A60FB72FB7AFA6804331B0113447A6833
S1132FF01A6000BF1437BD465DF8047B704780B487
S113300083B000AF78600B46FB701346BB70FB784F
S11330107A6804331B0113440533BA781A7000BF6D
S11330200C37BD465DF8047B704780B483B000AFB5
S113303078600B46FB701346BB70FB787A680433E8
S11330401B0113440633BA781A7000BF0C37BD460F
S11330505DF8047B7047000080B582B000AF424841
S1133060424B98474FF47C513F48414B98473E4868
S1133070404B984700BF3C483F4B98470346002BC2
S1133080F9D14FF4706138483C4B984700213648D9
S11330903B4B9847002134483A4B98473A4B1946E2
S11330A031483A4B98473A4B19462F48394B984781
S11330B00023FB712BE0FB79374A52F83320FB796C
S11330C019462948354B9847FB79334ADB001344AA
S11330D01A79FB7919462448314B9847FB792E4AD3
S11330E0DB0013445A79FB7919461F482D4B984746
S11330F0FB791B01244A9818FB79274ADB00134407
S1133100DB881946284B9847FB790133FB71FB791F
S11331101F2BD0D90023FB711AE0FB799BB21F331C
S11331209BB21BB21846214B9847FB799BB21F33C5
S11331309BB21BB218461E4B9847FB799BB21F33B8
S11331409BB21BB218461B4B9847FB790133FB71AA
S1133150FB79042BE1D90448174B98470023184600
S11331600837BD4680BD00BF00A00041DF2D000030
S1133170212E0000692D00008D2D0000032E00007B
S1133180532E0000872E000020090020CB2E0000C3
S1133190200B0020E72E0000F88E0000D72F00003F
S11331A0FF2F00002B300000032F0000E92C00004B
S11331B02D2D0000AD2C0000BB2D000080B582B089
S11331C000AF1F2119481A4B98470346FB71FA793F
S11331D013465B0013449B00164A13443B60FB797F
S11331E019461248144B98470346002B09D0FB7923
S11331F019460E48114B98473B685B6838689847F6
S113320010E0FB79194609480D4B98470346002BFB
S113321008D0FB79194605480A4B98473B681B6858
S11332203868984700BF0837BD4680BD00A00041FC
S1133230A32E000070020020212F0000552F000053
S11332407B2F0000B12F000080B500AF014B9847E1
S113325000BF80BDBD31000080B500AF014B984771
S113326000BF80BDBD31000080B500AF014B984761
S113327000BF80BDBD31000080B500AF014B984751
S113328000BF80BDBD31000080B500AF014B984741
S113329000BF80BDBD31000080B483B000AF0346E1
S11332A0FB80B7F90630002B0BDB0949B7F9063070
S11332B05B09FA8802F01F02012000FA02F241F8C9
S11332C0232000BF0C37BD465DF8047B704700BF68
S11332D000E100E080B483B000AF0346FB80B7F99F
S11332E00630002B10DB0B49B7F906305B09FA886E
S11332F002F01F02012000FA02F2203341F82320D9
S1133300BFF34F8FBFF36F8F00BF0C37BD465DF81F
S1133310047B704700E100E080B483B000AF034653
S1133320FB80B7F90630002B0CDB0949B7F90630EE
S11333305B09FA8802F01F02012000FA02F26033EE
S113334041F8232000BF0C37BD465DF8047B70476D
S113335000E100E080B483B000AF7860396000BF62
S11333607B685A683B681340002BF9D100BF0C37C7
S1133370BD465DF8047B704780B483B000AF7860CD
S113338039607B685A683B681340002B14BF0123E3
S11333900023DBB218460C37BD465DF8047B70474A
S11333A080B483B000AF78607B685B6918460C37E3
S11333B0BD465DF8047B704780B483B000AF78608D
S11333C039607B683A685A6100BF0C37BD465DF8C6
S11333D0047B704780B582B000AF78607B681B784F
S11333E0DBB243F00203DAB27B681A700321786817
S11333F0024B984700BF0837BD4680BD55330000D7
S113340080B582B000AF78607B681B78DBB223F0B4
S11334100203DAB27B681A7003217868024B98477A
S113342000BF0837BD4680BD5533000080B584B069
S113343000AF78600B46FB707B681B78FB73FB7BEB
S113344023F01003FB73FB781B015AB297F90F307A
S113345013435BB2FB737B68FA7B1A7003217868B1
S1133460024B984700BF1037BD4680BD553300005E
S113347080B584B000AF78600B46FB700321786898
S1133480064B98477B681B78FB73FA7BFB781340E9
S1133490FB73FB7B18461037BD4680BD55330000D7
S11334A080B582B000AF78600B46FB707B68FA7819
S11334B01A7003217868034B984700BF0837BD464C
S11334C080BD00BF5533000080B483B000AF786086
S11334D00B46FB707B68FA785A7000BF0C37BD4608
S11334E05DF8047B704780B483B000AF78603960C6
S11334F07B683A689A6000BF0C37BD465DF8047B70
S1133500704780B483B000AF786039607B683A68F4
S11335109A6100BF0C37BD465DF8047B704780B4E8
S113352085B000AFF8600B467A60FB72FB7AFA68EC
S113353006339B0013447A685A6000BF1437BD46B3
S11335405DF8047B704780B483B000AF7860396065
S11335507B683A681A6300BF0C37BD465DF8047B8C
S1133560704780B483B000AF786039607B683A6894
S11335705A6300BF0C37BD465DF8047B70470000FA
S113358080B582B000AF786001213848384B984745
S1133590034683F00103DBB2002B11D00221334830
S11335A0344B98470346002B06D03048324B98479B
S11335B002212E48314B984701212C48304B984723
S11335C001212A482D4B9847002128482D4B984724
S11335D0002126482C4B9847002124482B4B984720
S11335E0002122482A4B984700212048294B98471C
S11335F000211E48284B9847002200211B48274BD6
S11336009847002201211948244B98471748244B16
S113361098471620234B98471620234B984716208B
S1133620224B984717201F4B984717201E4B98474B
S113363017201E4B984718201A4B984718201A4BEE
S113364098471820194B98471920164B984719206A
S1133650154B98471920154B9847154A7B681360FA
S1133660002318460837BD4680BD00BF002800402F
S11336707933000071340000013400005533000038
S1133680A13400002D340000C9340000E7340000E8
S11336900335000047350000633500001F35000086
S11336A0D5330000D53200001933000099320000F0
S11336B0F003002080B584B000AF4148414B9847E7
S11336C003463B604FF0FF33BB603B6819463C4800
S11336D03D4B98473D4B1B68002B14BF012300232F
S11336E0DBB2F4223A4918463A4B984760E03B680B
S11336F01846394B98470346DBB2013BDBB2FB73F8
S113370047E00023FB710423BB7124E0BA79FB7901
S113371013445B107B717B79304A12F833301A46BC
S113372097F90F309A4206D17B792C4ADB00134477
S11337305B68BB6013E07B79284A12F833301A4681
S113374097F90F309A4203DA7B790133FB7102E077
S11337507B79013BBB71BA79FB799A42D6D2BB68BB
S1133760B3F1FF3F03D0194B1B68B868984797F92A
S11337700F30012202FA03F3DA433B6813403B6043
S11337803B681846144B98470346DBB2013BDBB257
S1133790FB7397F90F30B3F1FF3FB2D10848094BDF
S11337A0984703463B603B6819460548064B9847D3
S11337B03B68002B9BD100BF1037BD4680BD00BFC6
S11337C000280040A1330000B9330000F0030020BA
S11337D018900000492200003D8D0000F88F000081
S11337E080B500AF014B984700BF80BDB5360000DF
S11337F080B500AF014B984700BF80BDB5360000CF
S113380080B500AF014B984700BF80BDB5360000BE
S113381080B500AF014B984700BF80BDB5360000AE
S113382080B483B000AF7860396000BF7B685A68A9
S11338303B681340002BF9D100BF0C37BD465DF83F
S1133840047B704780B584B000AFF8600B467A60A3
S1133850FB72FA7AFB680832796843F8221043F65F
S1133860FD71F868024B984700BF1037BD4680BD14
S11338702138000080B582B000AF78607B6803F027
S11338800103002B04D0134A00211348134B98471B
S11338907B6803F00203002B04D00E4A01210E487A
S11338A00E4B98477B6803F00403002B04D00C4AAA
S11338B002210948094B98477B6803F00803002B51
S11338C004D0084A03210448044B984700BF083732
S11338D0BD4680BD060B0200001C004045380000B8
S11338E0042B0100062B010080B483B000AF786084
S11338F00B46FB707B68FA785A7100BF0C37BD46E3
S11339005DF8047B7047000080B582B000AF054BC2
S11339107B6001217868044B984700BF0837BD4697
S113392080BD00BF00080040E938000080B483B0C7
S113393000AF78600B46FB707B68FA781A7400BF9E
S11339400C37BD465DF8047B704780B485B000AF8A
S113395078607B68DB69FB60FB681B0A03F03F034C
S1133960FB60FB6818461437BD465DF8047B70475E
S113397080B483B000AF786039607B683A68DA61FC
S113398000BF0C37BD465DF8047B704780B582B03C
S113399000AF0C4B7B6000237B8078680A4B984710
S11339A003467B807B881B0203F47C5319467868AA
S11339B0064B984700217868054B984700BF0837A5
S11339C0BD4680BD001400404B3900007139000031
S11339D02D39000080B483B000AF7860396000BF37
S11339E07B685A683B681340002BF9D100BF0C3741
S11339F0BD465DF8047B704780B483B000AF786047
S1133A007B685B689B0803F00103002B14BF012350
S1133A100023DBB218460C37BD465DF8047B7047C3
S1133A2080B483B000AF78607B685B6818460C375D
S1133A30BD465DF8047B704780B586B000AFF86082
S1133A400B467A60FB72FA7AFB68083253F822302C
S1133A507B617B6923F00F037B617B6803F00F03B9
S1133A607A6913437B61FA7AFB680832796943F80F
S1133A70221043F6FD71F868024B984700BF1837CF
S1133A80BD4680BDD539000080B483B000AF7860F6
S1133A907B681B691B0A03F00103002B14BF01237D
S1133AA00023DBB218460C37BD465DF8047B704733
S1133AB080B485B000AF786039607B681B69FB60B7
S1133AC0FA683B681340FB60FB6818461437BD4630
S1133AD05DF8047B704780B483B000AF78607B6886
S1133AE01B7FDBB263F07F03DAB27B681A7700BF17
S1133AF00C37BD465DF8047B704780B483B000AFDB
S1133B0078600B46FB707B68FA781A7700BF0C3735
S1133B10BD465DF8047B704780B485B000AF786023
S1133B207B6893F82030FB73FB7B03F00103FB738A
S1133B30FB7B002B14BF01230023DBB21846143790
S1133B40BD465DF8047B704780B483B000AF7860F5
S1133B500B46FB707B68FA7883F8202000BF0C3793
S1133B60BD465DF8047B704780B483B000AF7860D5
S1133B7039607B683A685A6200BF0C37BD465DF80D
S1133B80047B704780B483B000AF78607B685B6A65
S1133B9018460C37BD465DF8047B704780B483B08B
S1133BA000AF786039607B683A689A6200BF0C376E
S1133BB0BD465DF8047B704780B485B000AF786083
S1133BC07B6893F82C30FB73FB7B5B08DBB203F060
S1133BD00103FB73FB7B002B14BF01230023DBB227
S1133BE018461437BD465DF8047B704780B485B031
S1133BF000AF78607B6893F82C30FB73FB7B9B08E9
S1133C00DBB203F00103FB73FB7B002B14BF012326
S1133C100023DBB218461437BD465DF8047B7047B9
S1133C2080B485B000AF78607B6893F82C30FB7368
S1133C30FB7BDB08DBB203F00103FB73FB7B002B94
S1133C4014BF01230023DBB218461437BD465DF8C8
S1133C50047B704780B485B000AF78607B6893F8CC
S1133C602C30FB73FB7B1B09DBB203F00103FB73FA
S1133C70FB7B002B14BF01230023DBB2184614374F
S1133C80BD465DF8047B704780B483B000AF044B3D
S1133C907B6000BF0C37BD465DF8047B704700BFF6
S1133CA00010004080B584B000AF454BFB60042297
S1133CB000214448444B984700BF4248434B98472F
S1133CC00346002BF9D10021F868414B984741493C
S1133CD0F868414B984700BFF868404B9847034643
S1133CE0002BF9D10021F8683D4B984700BFF868D4
S1133CF03C4B98470346002BF9D10223FB72FB7A15
S1133D001946F868324B984700BFF868364B984715
S1133D100346002BF9D1F868344B984703461946FB
S1133D20F868334B984700BFF868324B984703460E
S1133D30002BF9D18223FB72FB7A1946F868284BD1
S1133D40984700BFF868274B98470346002BF9D1E2
S1133D50F868294B98470346002B0CD04FF41063A6
S1133D607B6000BF7968F868244B984702467B68FB
S1133D709A42F7D109E000BFF868214B98470346FF
S1133D8083F00103DBB2002BF6D1F8681D4B984792
S1133D9000BF0C481C4B98470346002BF9D1062260
S1133DA000210848084B984700BF0648074B98472E
S1133DB00346002BF9D100BF1037BD4680BD00BFBC
S1133DC000100040001C0040393A0000F93900009E
S1133DD0FB3A0000DC0201049D3B0000553C00005E
S1133DE0493B0000ED3B0000B93B0000853B00006F
S1133DF0693B0000213C0000193B0000B13A00007F
S1133E00893A0000D73A0000213A000080B483B018
S1133E1000AF78607B689B78DBB218460C37BD46F0
S1133E205DF8047B704780B483B000AF78607B6832
S1133E305B6818460C37BD465DF8047B704700008C
S1133E4090B583B000AF174B7B601748174B98476A
S1133E5003463B603B6803F00203002B0CD07B68F5
S1133E601B68002B08D07B681C680F48104B9847D0
S1133E7003461846A04712E03B6803F00103002BF9
S1133E800CD07B685B68002B08D07B685C680648B4
S1133E90074B984703461846A04700E000BF0C377D
S1133EA0BD4690BD200D0020000002410D3E0000E3
S1133EB0273E000080B483B000AF0346FB80B7F90F
S1133EC00630002B0BDB0949B7F906305B09FA8889
S1133ED002F01F02012000FA02F241F8232000BF81
S1133EE00C37BD465DF8047B704700BF00E100E07D
S1133EF080B483B000AF0346FB80B7F90630002BD3
S1133F0010DB0B49B7F906305B09FA8802F01F028F
S1133F10012000FA02F2203341F82320BFF34F8F2F
S1133F20BFF36F8F00BF0C37BD465DF8047B70474D
S1133F3000E100E080B483B000AF7860396000BF76
S1133F407B681A693B681340002BF9D100BF0C371A
S1133F50BD465DF8047B704780B483B000AF7860E1
S1133F607B684FF480729A8100BF0C37BD465DF8C0
S1133F70047B704780B483B000AF78607B689B8912
S1133F809BB218460C37BD465DF8047B704780B47D
S1133F9083B000AF78607B684FF480725A8100BFB1
S1133FA00C37BD465DF8047B7047000080B582B0D5
S1133FB000AF78607B681B889BB243F002039AB21F
S1133FC07B681A8048F203017868034B984700BF66
S1133FD00837BD4680BD00BF353F000080B584B0C2
S1133FE000AF786048F2030178680A4B98477B6811
S1133FF01B88FB81FB895B089BB203F00103FB81F7
S1134000FB89002B14BF01230023DBB218461037B1
S1134010BD4680BD353F000080B582B000AF7860FA
S11340207B681B889BB223F002039AB27B681A80D8
S113403048F203017868034B984700BF0837BD4630
S113404080BD00BF353F000080B582B000AF78600E
S11340500B467B807B687A881A8048F20301786873
S1134060024B984700BF0837BD4680BD353F00006E
S113407080B582B000AF786039607B683A689A6135
S113408008217868024B984700BF0837BD4680BDB9
S1134090353F000080B584B000AFF8600B467A600D
S11340A0FB72FA7AFB680832796843F822106021BF
S11340B0F868034B984700BF1037BD4680BD00BF6A
S11340C0353F000080B582B000AF78600B46FB70CE
S11340D060217868054B9847FA787B68083253F872
S11340E0223018460837BD4680BD00BF353F00006A
S11340F080B582B000AF786039607B68002B14BF54
S113410001230023DBB2302216491846164B984788
S11341107B683A68DA607B68DB6801211846134BD8
S113412098477B68DB6801211846114B98477B68E8
S1134130DB6848F2800118460C4B98477B68DB68C3
S11341402022002118460B4B98477B68DB681846F1
S1134150094B9847094A7B681360002318460837BF
S1134160BD4680BD30900000492200004940000057
S1134170353F0000954000008F3F0000F40300200D
S113418080B582B000AF78607B68002B05D07B6877
S1134190DB68002B01D0012300E0002303F00103BE
S11341A0DBB2522208491846084B98470B20084BAB
S11341B098477B68DB6801211846064B984700BF87
S11341C00837BD4680BD00BF309000004922000082
S11341D0F13E00004940000080B582B000AF786035
S11341E07B68002B05D07B68DB68002B01D00123A2
S11341F000E0002303F00103DBB25E220D49184600
S11342000D4B98470B200D4B98477B68DB680021CA
S113421018460B4B98477B68DB6808211846094B06
S113422098477B68DB681846074B984700BF0837F8
S1134230BD4680BD3090000049220000B53E00001C
S113424071400000353F0000AD3F000080B582B0F2
S113425000AF78607B68002B05D07B68DB68002B9F
S113426001D0012300E0002303F00103DBB26B2241
S113427006491846064B98477B68DB681846054B89
S1134280984700BF0837BD4680BD00BF309000008E
S1134290492200001940000080B582B000AF786068
S11342A039607B68DB683A6800211846024B9847FE
S11342B000BF0837BD4680BD9540000080B582B080
S11342C000AF78607B68DB6800211846034B984791
S11342D0034618460837BD4680BD00BFC5400000F0
S11342E080B582B000AF78607B68DB681846034B0A
S11342F09847034618460837BD4680BDDD3F000099
S113430080B483B000AF786000BF0C37BD465DF861
S1134310047B704780B584B000AF78607B68DB684D
S113432018460D4B98470346FB81FB8903F48073C1
S1134330002B0CD07B681B68002B03D07B681B68A8
S1134340786898477B68DB681846044B984700BF39
S11343501037BD4680BD00BF753F0000593F0000C7
S113436080B400AF024B1846BD465DF8047B70472D
S11343700000002080B500AF034B1B681846034BB8
S1134380984700BF80BD00BFF40300201543000020
S113439080B483B000AF0346FB80B7F90630002B2E
S11343A00BDB0949B7F906305B09FA8802F01F02F2
S11343B0012000FA02F241F8232000BF0C37BD4669
S11343C05DF8047B704700BF00E100E080B483B077
S11343D000AF0346FB80B7F90630002B10DB0B4916
S11343E0B7F906305B09FA8802F01F02012000FACF
S11343F002F2203341F82320BFF34F8FBFF36F8FB6
S113440000BF0C37BD465DF8047B704700E100E057
S113441080B483B000AF0346FB80B7F90630002BAD
S11344200CDB0949B7F906305B09FA8802F01F0270
S1134430012000FA02F2603341F8232000BF0C3758
S1134440BD465DF8047B704700E100E080B483B0B2
S113445000AF7860396000BF7B68DA693B6813405D
S1134460002BF9D100BF0C37BD465DF8047B7047C3
S113447080B483B000AF786039607B68DA693B68E8
S11344801340002B14BF01230023DBB218460C3762
S1134490BD465DF8047B704780B483B000AF78609C
S11344A0396000BF7B68DA693B681340002BF9D19F
S11344B000BF0C37BD465DF8047B704780B483B001
S11344C000AF786039607B68DA693B681340002B81
S11344D014BF01230023DBB218460C37BD465DF838
S11344E0047B704780B483B000AF78607B6801229E
S11344F01A7600BF0C37BD465DF8047B704780B464
S113450083B000AF78607B6802221A7600BF0C3754
S1134510BD465DF8047B704780B483B000AF78601B
S11345207B681B7EDBB218460C37BD465DF8047B06
S11345307047000080B582B000AF78607B681B686C
S113454023F002027B681A6003217868024B9847C3
S113455000BF0837BD4680BD4D44000080B485B01F
S113456000AF78607B681B68FB60FB68DB0E03F0C0
S11345700103FB60FB68002B14BF01230023DBB2A3
S113458018461437BD465DF8047B704780B584B087
S113459000AF7860396003217868074B98477B68DF
S11345A01B68FB60FA683B681340FB60FB681846B5
S11345B01037BD4680BD00BF4D44000080B582B0B9
S11345C000AF786039607B683A681A6003217868C4
S11345D0024B984700BF0837BD4680BD4D440000DC
S11345E080B582B000AF78607B681B6823F002025C
S11345F07B681A6003217868024B984700BF08372C
S1134600BD4680BD9944000080B584B000AF786099
S1134610396003217868074B98477B681B68FB6007
S1134620FA683B681340FB60FB6818461037BD46C8
S113463080BD00BF9944000080B582B000AF7860AF
S113464039607B683A681A6003217868024B98479E
S113465000BF0837BD4680BD9944000080B582B0D4
S113466000AF78607B685B6843F480727B685A6053
S113467017217868024B984700BF0837BD4680BDB4
S11346804D44000080B582B000AF78607B685B6801
S113469023F480727B685A6017217868024B98472C
S11346A000BF0837BD4680BD4D44000080B582B0D0
S11346B000AF78607B685B6843F480227B685A6053
S11346C017217868024B984700BF0837BD4680BD64
S11346D04D44000080B582B000AF78607B685B68B1
S11346E023F480227B685A6017217868024B98472C
S11346F000BF0837BD4680BD4D44000080B582B080
S113470000AF786039607B685A683B681B0403F427
S113471040331A437B685A6004217868024B9847F7
S113472000BF0837BD4680BD4D44000080B582B04F
S113473000AF786039607B683A685A6017217868FE
S1134740024B984700BF0837BD4680BD4D4400006A
S113475080B483B000AF786039607B683A685A608F
S113476000BF0C37BD465DF8047B704780B483B04E
S113477000AF786039607B683A68DA6000BF0C3754
S1134780BD465DF8047B704780B584B000AF7860A7
S11347900B46FB707B685B6AFB60FB6823F4804319
S11347A0FB60FB789B031A46FB681343FB607B6842
S11347B0FA685A6204217868024B984700BF1037A0
S11347C0BD4680BD4D44000080B582B000AF786026
S11347D039607B683A685A6204217868024B9847CA
S11347E000BF0837BD4680BD4D44000080B582B08F
S11347F000AF786004217868034B98477B685B6A54
S113480018460837BD4680BD4D44000080B483B0CF
S113481000AF786039607B683A685A6200BF0C3731
S1134820BD465DF8047B704780B582B000AF786008
S113483039607B683A689A6204217868024B984729
S113484000BF0837BD4680BD4D44000080B582B02E
S113485000AF786004217868034B98477B689B6AB3
S113486018460837BD4680BD4D44000080B483B06F
S113487000AF786039607B683A689A6200BF0C3791
S1134880BD465DF8047B704780B483B000AF7860A8
S11348907B689B6A18460C37BD465DF8047B7047FD
S11348A080B483B000AF78607B685B8B9BB2DB081D
S11348B003F00103002B14BF01230023DBB21846CD
S11348C00C37BD465DF8047B7047000080B582B0AC
S11348D000AF786004217868044B98477B685B8B51
S11348E09BB218460837BD4680BD00BF4D4400004A
S11348F0B0B48DB000AF7860134B07F10C041D46C3
S11349000FCD0FC495E80F0084E80F000023FB626D
S113491010E0FB6A9B0007F13002134453F8243C77
S11349201A467B689A4202D1FB6ADBB206E0FB6A54
S11349300133FB62FB6A072BEBD90023184634379B
S1134940BD46B0BC704700BF6490000080B483B023
S113495000AF786039607B68134A934202D1134AEE
S11349603B6813607B68124A934202D1114A3B6848
S113497013607B68104A934202D1104A3B6813606B
S11349807B680F4A934202D10E4A3B6813607B68EE
S11349900D4A934202D10D4A3B68136000BF0C37A5
S11349A0BD465DF8047B70470030004010040020D1
S11349B000340040140400200020014118040020A9
S11349C0004001411C040020000800432004002092
S11349D080B584B000AF78607868134B984703467D
S11349E0BB730023FB7310E0FA7B104913465B0092
S11349F01344DB000B441B78BA7B9A4202D197F92B
S1134A000F300DE0FB7B0133FB73FB7B032BEBD9F6
S1134A104FF4717206490020064B98474FF0FF335C
S1134A2018461037BD4680BDF14800002000002024
S1134A30489000004922000080B582B000AF786041
S1134A4003217868024B984700BF0837BD4680BDF4
S1134A50FD46000090B587B000AFF860B9607A6099
S1134A60F8687D4B984703467B61F8687B4B984711
S1134A7003467B82BB6803F00103002B00F09580A2
S1134A807B8A03F00203002B1DD0F868744B98470F
S1134A907B685B889BB243F480539AB27B685A80EC
S1134AA07B685B889BB223F480739AB27B685A80DC
S1134AB07B8A03F00103002B02D06FF00403C6E0ED
S1134AC06FF00303C3E07B8A03F00403002B1FD0C1
S1134AD07B685B68002B07DD7B685B889BB243F4D3
S1134AE080539AB27B685A807B685B889BB21BB206
S1134AF0002B02DAF8685B4B98477B685B889BB2B3
S1134B0023F480739AB27B685A806FF001039EE0AD
S1134B107B685B889BB203F48063002B1CD07B68AA
S1134B201B881B125B0003F00604F8684E4B984781
S1134B30034603F48043234343F0F1031946F86822
S1134B404A4B98477B685B889BB223F480639AB294
S1134B507B685A8000237AE07B685B68002B11D164
S1134B607B685B889BB21BB2002B02DAF8683D4B72
S1134B7098477B685B889BB223F480739AB27B6806
S1134B805A8010E07B689B681B781946F868384B9C
S1134B9098477B689B685A1C7B689A607B685B6853
S1134BA05A1E7B685A60002351E0BB6803F002037D
S1134BB0002B4BD07B685B68002B41D07B8A03F0D1
S1134BC00403002B3CD17B685B685A1E7B685A60E7
S1134BD07B685B68002B02D17B69002B06D07B6865
S1134BE05B68012B05D17B69002B02D0F868214B4F
S1134BF098477B685B68002B13D17B685B889BB20A
S1134C001BB2002B05DAF8681B4B9847F868154B64
S1134C1098477B685B889BB223F480739AB27B6865
S1134C205A807B689C68621C7B689A60F868134BA6
S1134C3098470346DBB22370F868114B984705E0A8
S1134C40F8680F4B98476FF0010300E00023184603
S1134C501C37BD4690BD00BF5D450000CD48000037
S1134C60E5440000394A0000ED470000C947000050
S1134C7029480000AD460000854600004D4800006C
S1134C80FF44000080B586B000AF78607B681B6984
S1134C903B613869354B98470346FB6000237B61D1
S1134CA07B68002B14BF01230023DBB240F23642A1
S1134CB02F4918462F4B98477B681B69002B14BF5C
S1134CC001230023DBB240F2374229491846294B1D
S1134CD0984700BFFB6803F08003002B26D17B6854
S1134CE01A46F9683869244B984778617B69002B28
S1134CF01BD1FB6803F00103002B08D07B689B6980
S1134D00002B04D07B689B69786898472AE0FB688D
S1134D1003F00203002B25D07B68DB69002B21D034
S1134D207B68DB69786898471CE000BF7B685B8818
S1134D309BB223F480739AB27B685A807B685B6968
S1134D40002B10D07B69002B05D07B685B697969E7
S1134D507868984707E07B685B696FF004017868BE
S1134D60984700E000BF1837BD4680BD19450000D4
S1134D704890000049220000554A000080B582B0E6
S1134D8000AF78607868054B984703469B00DBB218
S1134D902E33DBB218460837BD4680BDF14800000B
S1134DA080B586B000AF786039607B68002B14BF93
S1134DB001230023DBB240F2AB421D4918461D4BD0
S1134DC098477B683A681A617B68396818461A4BB9
S1134DD09847F860FB68002B01D0FB6824E07968F1
S1134DE03868164B98473868154B98470346FB7547
S1134DF000233B6114E0FB7D1BB21846114B98471E
S1134E00FB7D1BB21846104B9847FB7D1BB218461E
S1134E100E4B9847FB7D0133FB753B6901333B61C6
S1134E203B69032BE7D9002318461837BD4680BDDC
S1134E304890000049220000695000004D490000DC
S1134E407D4D0000CD43000011440000914300005B
S1134E5090B587B000AF78607B681B697B617B6825
S1134E603B617869334B98470346FB607B68002BB2
S1134E7014BF01230023DBB240F2D9422E49184665
S1134E802E4B98473B695B68012B06D1FB68002BCE
S1134E9003D078692A4B984702E07869294B9847F0
S1134EA03B691B8803F48063002B22D03B695B8839
S1134EB09BB203F00103002B07D03B695B889BB2D4
S1134EC043F480639AB23B695A803B691B885B0058
S1134ED040F2FE741C4078691B4B9847034603F468
S1134EE08043234343F4004319467869174B98479A
S1134EF01AE03B691B885B00DBB23A69528892B2C4
S1134F0002F00102002A14BF01220022D2B213438C
S1134F101C4678690C4B9847034603F480432343AB
S1134F2019467869094B9847002318461C37BD4633
S1134F3090BD00BF5D45000048900000492200007C
S1134F40AD460000D5460000ED470000C94700000B
S1134F5080B584B000AF786039607B68002B14BFE3
S1134F6001230023DBB240F201522A4918462A4B9E
S1134F7098477B681B69002B14BF01230023DBB215
S1134F8040F2025223491846234B98473B68002BB2
S1134F9014BF01230023DBB240F203521D4918461B
S1134FA01D4B98473B685B68002B01D100232DE023
S1134FB07B685B889BB203F48073002B02D06FF094
S1134FC0030323E03B685B889BB243F480739AB28B
S1134FD03B685A807B683A6807CA83E807007B68A5
S1134FE01B6918460D4B984778680D4B9847F86035
S1134FF0FB68002B09D07B685B889BB223F4807329
S11350009AB27B685A80FB6800E000231846103788
S1135010BD4680BD48900000492200005D46000066
S1135020514E000080B485B000AFF8600B467A6042
S1135030FB72FB7A012B08D0022B0AD0002B00D084
S11350400BE0FB687A685A6107E0FB687A689A614A
S113505003E0FB687A68DA6100BF0023184614375E
S1135060BD465DF8047B704780B584B000AF7860BE
S113507039603868424B98470346FB73012138680E
S1135080404B9847034683F00103DBB2002B20D04A
S1135090FA7B3D4913465B001344DB000B440433A5
S11350A01B6803F01C03BB6002213868374B984728
S11350B00346002B06D03868354B984702213868E0
S11350C0344B9847BB6843F0010319463868324BA8
S11350D09847012138682F4B9847FA7B2A49134691
S11350E05B001344DB000B4404331B681946386827
S11350F0294B9847FA7B244913465B001344DB0091
S11351000B4408331B6819463868244B9847FA7BCC
S11351101D4913465B001344DB000B440C331B682E
S1135120194638681E4B9847FA7B174913465B00AB
S11351301344DB000B4404331B681B0E9BB203F0C7
S113514003039AB27B689A817B689B89012B8CBF8D
S113515001230023DBB219463868124B9847FA7BC7
S1135160094913465B001344DB000B4412331A88CD
S11351707B68DA81002318461037BD4680BD00BF26
S1135180D149000071440000200000208D4500003A
S1135190354500004D440000BD4500002D4700008A
S11351A06D4700008947000080B586B000AF786085
S11351B039607B68002B14BF01230023DBB240F26B
S11351C0F7621C4918461C4B984738681B4B984794
S11351D0F860FB68002B01D0FB6827E07B683A6825
S11351E01A6079683868164B98473868154B9847A1
S11351F00346FB7500233B6114E0FB7D1BB218469C
S1135200114B9847FB7D1BB21846104B9847FB7D0A
S11352101BB218460E4B9847FB7D0133FB753B6967
S113522001333B613B69032BE7D900231846183748
S1135230BD4680BD48900000492200004D53000047
S11352404D4900007D4D0000CD4300001144000095
S11352509143000080B582B000AF78600B46FB70CC
S11352607B681B68FA7811461846034B984700BFC1
S11352700837BD4680BD00BF6D48000090B585B0BD
S113528000AF78607B681B68FB60F8682A4B98471E
S11352900346BB60BB6803F08003002B11D07B681E
S11352A05B68002B14BF01230023DBB24FF4FA62C6
S11352B022491846224B98477B685B687868984770
S11352C036E0BB6803F00403002B31D0F8681D4BB3
S11352D09847034683F00103DBB2002B17D07B68A9
S11352E0DB68002B14BF01230023DBB240F2D4722D
S11352F012491846124B98477B68DC68F868124BD1
S113530098470346DBB219467868A04710E07B68EB
S11353109B68002B14BF01230023DBB240F2D77239
S113532006491846064B98477B689B6878689847F7
S113533000BF1437BD4690BD1945000048900000D9
S113534049220000A14800008948000080B584B0CB
S113535000AF786078682F4B98470346FB7397F942
S11353600F30B3F1FF3F02D16FF00C034EE0012187
S11353707868294B9847034683F00103DBB2002B7E
S11353801ED097F90F30254A1B01134404331B68C0
S113539003F01C03BB6002217868214B9847034645
S11353A0002B06D078681F4B9847022178681E4B63
S11353B09847BB6843F00103194678681B4B98472C
S11353C001217868184B984797F90F30134A1B014D
S11353D0134404331B6819467868144B984797F9AB
S11353E00F300E4A1B01134408331B6819467868B2
S11353F00F4B984797F90F30084A1B0113440C339D
S11354001B68194678680B4B9847002318461037D9
S1135410BD4680BD39540000BD440000800000201A
S113542009460000E14500009944000039460000A7
S1135430514700000D48000080B584B000AF78608B
S11354407868124B98470346BB730023FB730DE047
S1135450FB7B0F4A1B0113441B78BA7B9A4202D18F
S113546097F90F300DE0FB7B0133FB73FB7B002BC3
S1135470EED040F6140207490020074B98474FF03E
S1135480FF3318461037BD4680BD00BFF148000009
S113549080000020489000004922000080B500AF41
S11354A0034B1B681846034B984700BF80BD00BFE1
S11354B010040020854C000080B500AF034B1B682E
S11354C01846034B984700BF80BD00BF100400205E
S11354D0854C000080B500AF034B1B681846034B96
S11354E0984700BF80BD00BF10040020854C000019
S11354F080B500AF034B1B681846034B984700BFA9
S113550080BD00BF10040020854C000080B500AFB2
S1135510034B1B681846034B984700BF80BD00BF70
S113552014040020854C000080B500AF034B1B68B9
S11355301846034B984700BF80BD00BF14040020E9
S1135540854C000080B500AF034B1B681846034B25
S1135550984700BF80BD00BF14040020854C0000A4
S113556080B500AF034B1B681846034B984700BF38
S113557080BD00BF14040020854C000080B500AF3E
S1135580034B1B681846034B984700BF80BD00BF00
S1135590180400207D52000080B500AF034B1B6847
S11355A01846034B984700BF80BD00BF1804002075
S11355B07D52000080B500AF034B1B681846034BB7
S11355C0984700BF80BD00BF180400207D52000032
S11355D080B500AF034B1B681846034B984700BFC8
S11355E080BD00BF180400207D52000080B500AFCC
S11355F0034B1B681846034B984700BF80BD00BF90
S11356001C040020854C000080B500AF034B1B68D0
S11356101846034B984700BF80BD00BF1C04002000
S1135620854C000080B500AF034B1B681846034B44
S1135630984700BF80BD00BF1C040020854C0000BB
S113564080B500AF034B1B681846034B984700BF57
S113565080BD00BF1C040020854C000080B500AF55
S1135660034B1B681846034B984700BF80BD00BF1F
S113567020040020854C000080B500AF034B1B685C
S11356801846034B984700BF80BD00BF200400208C
S1135690854C000080B500AF034B1B681846034BD4
S11356A0984700BF80BD00BF20040020854C000047
S11356B080B500AF034B1B681846034B984700BFE7
S11356C080BD00BF20040020854C000080B483B05E
S11356D000AF7860064B6FF07F425A60044B05229E
S11356E01A6000BF0C37BD465DF8047B704700BFED
S11356F010E000E080B582B000AF78607868034BBA
S1135700984700BF0837BD4680BD00BFCD56000096
S113571080B483B000AF0346FB80B7F90630002B9A
S11357200BDB0949B7F906305B09FA8802F01F025E
S1135730012000FA02F241F8232000BF0C37BD46D5
S11357405DF8047B704700BF00E100E080B483B0E3
S113575000AF0346FB80B7F90630002B10DB0B4982
S1135760B7F906305B09FA8802F01F02012000FA3B
S113577002F2203341F82320BFF34F8FBFF36F8F22
S113578000BF0C37BD465DF8047B704700E100E0C4
S113579080B483B000AF0346FB80B7F90630002B1A
S11357A00CDB0949B7F906305B09FA8802F01F02DD
S11357B0012000FA02F2603341F8232000BF0C37C5
S11357C0BD465DF8047B704700E100E080B483B01F
S11357D000AF7860396000BF7B689A683B6813400B
S11357E0002BF9D100BF0C37BD465DF8047B704730
S11357F080B483B000AF786039607B689A683B6896
S11358001340002B14BF01230023DBB218460C37CE
S1135810BD465DF8047B704780B483B000AF786008
S11358207B68DB6A03F00103002B14BF0123002310
S1135830DBB218460C37BD465DF8047B704780B474
S113584083B000AF78607B680122DA6200BF0C3756
S1135850BD465DF8047B704780B483B000AF7860C8
S11358600B46FB707B68FA785A7100BF0C37BD4653
S11358705DF8047B704780B483B000AF78607B68C8
S113588001229A6200BF0C37BD465DF8047B704765
S113589080B582B000AF78607B681B6843F001027A
S11358A07B681A6001217868024B984700BF08376B
S11358B0BD4680BDCD57000080B582B000AF786092
S11358C07B681B6843F002027B681A6003217868D6
S11358D0024B984700BF0837BD4680BDCD57000036
S11358E080B584B000AF786003217868094B98478D
S11358F07B681B68FB60FB685B0803F00103FB60CB
S1135900FB68002B14BF01230023DBB218461037B9
S1135910BD4680BDCD57000080B582B000AF786031
S11359207B681B6823F002027B681A600321786895
S1135930024B984700BF0837BD4680BDCD570000D5
S113594080B584B000AF7860396003217868074B74
S113595098477B681B68FB60FA683B681340FB60F0
S1135960FB6818461037BD4680BD00BFCD57000008
S113597080B582B000AF786039607B683A681A609D
S113598003217868024B984700BF0837BD4680BDA5
S1135990CD57000080B483B000AF78600B46FB7035
S11359A07B68FA789A7700BF0C37BD465DF8047BB4
S11359B0704780B483B000AF786039607B683A6820
S11359C01A6200BF0C37BD465DF8047B70470000C7
S11359D080B582B000AF786039607B683A681A6439
S11359E080217868024B984700BF0837BD4680BDC8
S11359F0CD57000080B582B000AF78608021786810
S1135A00034B98477B681B6C18460837BD4680BD1E
S1135A10CD57000080B483B000AF786039607B68F4
S1135A20094A934202D1094A3B6813607B68084AD9
S1135A30934202D1074A3B68136000BF0C37BD464E
S1135A405DF8047B704700BF00600141240400201E
S1135A50008001412804002080B584B000AF786044
S1135A6039603868334B9847F860FB68002B02D1E3
S1135A706FF009035AE07B683A68DA6001213868FC
S1135A802D4B9847034683F00103DBB2002B11D062
S1135A9002213868294B98470346002B06D0386802
S1135AA0274B984702213868264B984701213868CC
S1135AB0254B984701213868224B9847FB689B681F
S1135AC019463868204B9847FB681B7B1946386891
S1135AD01E4B9847FB685B7B194638681C4B9847FC
S1135AE0FB681B69194638681A4B9847FB68DB6AE0
S1135AF019463868184B98473868184B984779689E
S1135B003868174B9847FB68B3F904301846154BAF
S1135B109847FB68B3F904301846134B9847FB6861
S1135B20B3F904301846114B984700231846103730
S1135B30BD4680BD215D0000F157000041590000C1
S1135B4019590000CD570000715900005958000040
S1135B5095590000B3590000D1590000775800004E
S1135B60155A00004D5700009157000011570000CE
S1135B7080B584B000AF78607B68DB68FB60F86850
S1135B800A4B9847B860BB68002B0BD0BB68B3F9CD
S1135B9004301846064B9847F868064B9847F8684F
S1135BA0054B984700BF1037BD4680BD215D0000FE
S1135BB04D570000195900009158000080B582B07B
S1135BC000AF78607B68DB681846034B984700BFDA
S1135BD00837BD4680BD00BFB958000080B582B00B
S1135BE000AF78607B68DB681846034B984700BFBA
S1135BF00837BD4680BD00BF1959000080B582B08A
S1135C0000AF786039607B68DB6839681846034BFD
S1135C10984700BF0837BD4680BD00BFD15900007A
S1135C2080B582B000AF78607B68DB681846034BB0
S1135C309847034618460837BD4680BDF55900000D
S1135C4080B582B000AF78607B68DB681846034B90
S1135C509847034618460837BD4680BDE158000002
S1135C6080B400AF024B1846BD465DF8047B704714
S1135C70F000002080B584B000AF78607B68DB68FA
S1135C80FB60F868084B9847B860BB68002B06D0E7
S1135C90BB68B3F90430DBB21846044B984700BF25
S1135CA01037BD4680BD00BF215D0000D12B000030
S1135CB080B584B000AF78607B68DB68FB60F8680F
S1135CC0074B98470346002B06D0F868054B9847C6
S1135CD07B681B687868984700BF1037BD4680BD55
S1135CE0195800003F58000080B500AF034B1B68F3
